:100000000C94D1010C9402020C9402020C94020292
:100010000C9402020C9402020C9402020C94020250
:100020000C9402020C94BF040C94BF040C94BF0403
:100030000C9402020C9402020C9402020C94020230
:100040000C9402020C9402020C9402020C94020220
:100050000C9402020C9402020C9402020C94C00D47
:100060000C9402020C9489040C945F040C94020218
:100070000C9402020C9402020C9402020C940202F0
:100080000C9402020C9402020C9402020C940202E0
:100090000C9402020C9402020C9402020C940202D0
:1000A0000C9402020C9402020C9402020C940202C0
:1000B0000C9402020C9402020C9402020C940202B0
:1000C0000C9402020C9402020C9402020C940202A0
:1000D0000C9402020C9402020C9402020C94020290
:1000E0000C940202190C1C0C0B0C0F0C150C530C6D
:1000F000200C240C2A0C2E0C320C380C3C0C400C1E
:10010000530C460C4A0C4E0C0C94380C0C940B0CF3
:100110000C9442030C94CA120C94CF020C94400C21
:100120000C9404020C94150C0C944E0C0C943C0C86
:100130000C94B2120C94530C0C9488020C94200C66
:100140000C94240C0C9443030C942E0C0C942A0352
:100150000C94190C0C942F020C940F0C0C94460C5C
:100160000C94AF030C944A0C0C9497030C94320C2F
:100170000C942A0C0C9443020C9451020C944104EC
:100180000C941C0C00407A10F35A00A0724E18090F
:100190000010A5D4E80000E87648170000E40B54EE
:1001A000020000CA9A3B000000E1F50500008096BD
:1001B0009800000040420F000000A08601000000EF
:1001C000102700000000E8030000000064000000A9
:1001D00000000A00000000000100000000002C7672
:1001E000D888DC674F0823DFC1DFAE59E1B1B7968D
:1001F000E5E3E453C63AE651997696E8E6C28426EA
:10020000EB898C9B62ED407C6FFCEFBC9C9F40F2C5
:10021000BAA56FA5F490055A2AF75C936B6CF96741
:100220006DC11BFCE0E40D47FEF520E6B500D0ED06
:10023000902E0300943577050080841E080000206E
:100240004E0A000000C80C333333330F986E12830C
:100250001141EF8D2114893BE65516CFFEE6DB18E0
:10026000D1844B381BF77C1D901DA4BBE4242032A5
:1002700084725E228100C9F124ECA1E53D270000D3
:100280002100240027002A002D0030003300010146
:100290000000040107010A010000220025002800D7
:1002A0002B002E003100340002010000050108017E
:1002B0000B01000020002300260029002C002F0045
:1002C00032000001000003010601090105050505D2
:1002D000070508080808020202020A0A08080404BE
:1002E00004040101010101010101030303030303EC
:1002F0000303040707070C0C0C0C0C0C0C0C02027B
:10030000020206060606060606060B0B0B0B0B0B77
:100310000B0B010210202008081020401020408004
:1003200002010201080402010102040810204080B9
:100330008040201008040201800402018040201047
:100340000804020108040201010204081020408090
:10035000010204081020408000000A0B02090C0D65
:100360000E08070304010000000000000000000068
:10037000000000000000000000000000000000007D
:10038000000000001211100000000000000000003A
:100390000000000000000000000000000000CA1281
:1003A000B21211241FBECFEFD1E2DEBFCDBF00E0FD
:1003B0000CBF26E0ACE5B4E001C01D92AC30B20742
:1003C000E1F714E0A0E0B2E0E0E7FAE300E00BBF01
:1003D00002C007900D92AC35B107D9F711E0C0ED1E
:1003E000D1E000E006C021970109802FFE010E94A4
:1003F000F217CF3CD10780E00807A9F70E94071148
:100400000C94261D0C940000CF92DF92EF92FF9285
:100410000F931F93CF93DF936C017A018B01C0E0A0
:10042000D0E0CE15DF0589F0D8016D918D01D601A0
:10043000ED91FC910190F081E02DC6011995892B79
:1004400011F47E0102C02196ECCFC701DF91CF915C
:100450001F910F91FF90EF90DF90CF900895FC01D6
:10046000918D828D981761F0828DDF01A80FB11DEB
:100470005D968C91928D9F5F9F73928F90E008950F
:100480008FEF9FEF0895FC01918D828D981731F0C9
:10049000828DE80FF11D858D90E008958FEF9FEF1D
:1004A0000895FC01918D228D892F90E0805C9F4FF3
:1004B000821B91098F739927089580EA94E00E9426
:1004C000510221E0892B09F420E0822F0895FC01DC
:1004D000848DDF01A80FB11DA35ABF4F2C91848DCD
:1004E00090E001968F739927848FA689B7892C9302
:1004F000A089B1898C9180648C93938D848D98139D
:1005000006C00288F389E02D80818F7D8083089565
:10051000EF92FF920F931F93CF93DF93EC0181E053
:10052000888F9B8D8C8D981305C0E889F98980810F
:1005300085FD24C0F62E0B8D10E00F5F1F4F0F734B
:100540001127E02E8C8DE8120CC00FB607FCFACFF5
:10055000E889F989808185FFF5CFCE010E94670285
:10056000F1CF8B8DFE01E80FF11DE35AFF4FF082B2
:100570000B8FEA89FB898081806207C0EE89FF8941
:100580006083E889F98980818064808381E090E0DC
:10059000DF91CF911F910F91FF90EF900895CF932E
:1005A000DF93EC01888D8823C9F0EA89FB8980817B
:1005B00085FD05C0A889B9898C9186FD0FC00FB64D
:1005C00007FCF5CF808185FFF2CFA889B9898C918E
:1005D00085FFEDCFCE010E946702E7CFDF91CF917B
:1005E000089580E090E0892B21F00E945D02811146
:1005F00025C080E090E0892B41F080E090E0892BDD
:1006000021F00E94000081111CC080E090E0892B45
:1006100041F080E090E0892B21F00E9400008111E0
:1006200013C080E090E0892BA1F080E090E0892B5E
:1006300081F00E94000081110AC008950E9400000C
:10064000D8CF0E940000E1CF0E940000EACF0C94B6
:100650000000089520919E0430919F0428173907C7
:1006600071F490919D0480919C04981741F0E09161
:100670009D04F0E0E45AFB4F808190E008958FEFF5
:100680009FEF089508951F93CF93DF93DC015C964D
:100690002D913C915D972115310539F481E090E071
:1006A00013969C938E9312973DC05196ED91FC91B9
:1006B000529750969C915097892F80951FB75E96C0
:1006C0004C915E9741FB772770F941FD6095F89456
:1006D0004081772311F0492B01C048234083E90171
:1006E0002197F1F748E0508160FF02C0592B01C00B
:1006F00058235083E9012197F1F76695415099F706
:10070000772321F090818923808303C08081982BF7
:1007100090831FBF5C968D919C915D970197F1F737
:1007200021E030E0C901DF91CF911F910895209120
:100730009E0430919F042817390771F480919C041E
:1007400020919D0490E0805C9F4F821B910960E4A2
:1007500070E00E94DE17089580E090E008952091F7
:100760009E0430919F0428173907B9F490919D0495
:1007700080919C04981789F0E0919D04F0E0E45A80
:10078000FB4F808120919D0430E02F5F3F4F2F73FE
:10079000332720939D0490E008958FEF9FEF0895F5
:1007A000CF93DF93EC0185960E94440FCE014F96C4
:1007B000DF91CF910C94440F4F960C942D0F0F9313
:1007C0001F93CF93DF93EC018B01FB018081888322
:1007D0008181898382818A8383818B8384818C83D5
:1007E00085818D83868197819F838E838085918586
:1007F0009987888782859385A485B5858A879B8715
:10080000AC87BD8786859785A089B1898E879F87AC
:10081000A88BB98B82899389A489B5898A8B9B8B94
:10082000AC8BBD8B86898E8B8789908DA18DB28D87
:100830008F8B988FA98FBA8F838D948DA58DB68D50
:100840008B8F9C8FAD8FBE8F18A21F8E1AA219A2FC
:100850001CA21BA2615E7F4FCE014F960E942D0FFE
:100860001EA21DA218A61FA21AA619A6B8016B5D8A
:100870007F4FCE018596DF91CF911F910F910C9400
:100880002D0F0E94241A60E0FC0182810C941A0D45
:10089000CF93DF93EC01842F6C834D8361E00E9442
:1008A0004A0D61E08C810E944A0D61E08D810E94B9
:1008B0001A0D61E08C81DF91CF910C941A0D1F927B
:1008C0000F920FB60F9211240BB60F922F933F93F6
:1008D0004F935F936F937F938F939F93AF93BF9348
:1008E000EF93FF9380EA94E00E946702FF91EF91FB
:1008F000BF91AF919F918F917F916F915F914F9138
:100900003F912F910F900BBE0F900FBE0F901F9035
:1009100018951F920F920FB60F9211240BB60F92DB
:100920002F938F939F93EF93FF93E091B004F091F7
:10093000B1048081E091B604F091B70482FD12C049
:1009400090818091B9048F5F8F732091BA048217D0
:1009500051F0E091B904F0E0E056FB4F958F8093A1
:10096000B90401C08081FF91EF919F918F912F91E8
:100970000F900BBE0F900FBE0F901F9018951F92F7
:100980000F920FB60F9211240BB60F922F933F9335
:100990004F935F936F937F938F939F93AF93BF9387
:1009A000EF93FF93E0919E04F0919F04309709F438
:1009B00051C0968DA685B785858591FF04C09C9111
:1009C000892329F447C09C91892309F043C0A38956
:1009D000B4899C918589809589238C938689978990
:1009E0000197F1F7608D718DA685B785558538E043
:1009F00020E0CB010197F1F7822F90E09595879544
:100A0000282F4C91452309F02068315091F7868DAD
:100A100081FD209580919C0490E001968F73992729
:100A200030919D04381749F0A0919C04B0E0A45A7D
:100A3000BB4F2C9380939C0403C0868D8160868F6E
:100A4000828D938D0197F1F7A389B4899C91858953
:100A5000892B8C93FF91EF91BF91AF919F918F91D3
:100A60007F916F915F914F913F912F910F900BBEAE
:100A70000F900FBE0F901F9018950F931F93CF9359
:100A8000DF938C01EB018881F80180838981818368
:100A90008A8182838B8183838C8184838D8185830A
:100AA0008E819F81978386838885998591878087AA
:100AB0008A859B85AC85BD8582879387A487B5870A
:100AC0008E859F85A889B98986879787A08BB18BEA
:100AD0008A899B89AC89BD89828B938BA48BB58BCA
:100AE0008E89868B8F89988DA98DBA8D878B908FF3
:100AF000A18FB28F8B8D9C8DAD8DBE8D838F948F8A
:100B0000A58FB68F615E7F4FC8014F960E942D0F53
:100B1000BE016B5D7F4FC80185960E942D0FC801F5
:100B2000DF91CF911F910F9108958F929F92AF9275
:100B3000BF92CF92DF92EF92FF920F931F93CF93CA
:100B4000DF93CDB7DEB7C258D1090FB6F894DEBF38
:100B50000FBECDBF8C016B015901FC018481CF57C1
:100B6000DF4F4883C158D040CE57DF4F5883C2581B
:100B7000D0400E94F10C982E892EF80185810E94A8
:100B8000F10C9E012F5F3F4F7901CF57DF4F488116
:100B9000C158D040CE57DF4F5881C258D04034E0C2
:100BA000C316D104ECF4E2E0CE16D104F4F4CA94F6
:100BB000CD2809F05CC0F80186A18F9385A18F93A1
:100BC00080A18F93878D8F938EE392E09F938F9375
:100BD0001F9280E88F93FF92EF920E94421A42C0C8
:100BE00024E0C216D10489F042C09F938F938F9264
:100BF0009F92F80186A18F9385A18F9380A18F93F7
:100C0000878D8F938DE592E024C0F80136A125A150
:100C100090A1878DA114B10491F45F934F933F93FA
:100C20002F939F938F9383E992E09F938F931F92CB
:100C300080E88F93FF92EF920E94421A13C0BF92F6
:100C4000AF925F934F933F932F939F938F9389EB33
:100C500092E09F938F931F9280E88F93FF92EF9281
:100C60000E94421A0FB6F894DEBF0FBECDBFC70177
:100C70000E94A50CCE57DF4F0FB6F894DEBF0FBE13
:100C8000CDBFDF91CF911F910F91FF90EF90DF903B
:100C9000CF90BF90AF909F908F900895FF920F9349
:100CA0001F93CF93DF93EC018B01F42E613071051C
:100CB00021F06230710589F025C08D810E94F10C10
:100CC000019711F080E03AC0FF20B9F120E030E058
:100CD00040E050E061E070E02DC08C810E94F10C9A
:100CE000019781F768ED72E0CE0185960E94A60E0D
:100CF0001E8AFF2011F120E030E040E050E062E089
:100D000070E018C08D810E94F10C019729F08C8150
:100D10000E94F10C0197B1F663EF72E0CE01859667
:100D20000E94A60E1E8AFF2041F020E030E040E045
:100D300050E0B801CE010E94950581E0DF91CF918E
:100D40001F910F91FF900895CF93DF93EC0161E025
:100D500088810E941A0DEE81FF81E230F10538F0A2
:100D6000EE0FFF1FEE0FFF1F35973197F1F760E091
:100D700088810E941A0D8E819F818230910538F002
:100D8000880F991F880F991F05970197F1F7DF9139
:100D9000CF910895EF92FF920F931F93CF93DF931C
:100DA0008C017B01C1E0D0E0CE15DF05A4F4F80191
:100DB00080859185029741F041E063E070E0C801D1
:100DC0000E944E06811105C0C8010E94A40621960A
:100DD000EBCFF801168ACE01DF91CF911F910F91D1
:100DE000FF90EF9008954F925F926F927F92AF9233
:100DF000BF92CF92DF92EF92FF920F931F93CF9308
:100E0000DF93EC016A017B01198120E030E0A90148
:100E1000C701B6010E94D91718163CF461E0812F72
:100E20000E941A0DC701B60107C060E0812F0E9421
:100E30001A0DC701B60190582E853F8548895989FA
:100E40000E94F0160E94D9160E9462172B013C01E5
:100E5000CE010E94CA068C01A70196016B8D7C8D84
:100E60008D8D9E8D0E946D166B8F7C8F8D8F9E8FCA
:100E70000415150519F481E08E8B01C01E8A9201BC
:100E8000A80164E070E0CE010E9495058E89DF9193
:100E9000CF911F910F91FF90EF90DF90CF90BF9077
:100EA000AF907F906F905F904F9008958F929F9238
:100EB000AF92BF92CF92DF92EF92FF920F931F9368
:100EC000CF93DF93EC018B0189811616170614F47A
:100ED00061E001C060E00E941A0DB80117FF04C074
:100EE00066277727601B710B072E000C880B990B68
:100EF0000E94B9152A893B894C895D890E94F016A8
:100F00000E94D9160E9462174B015C01CE010E941B
:100F1000CA067C01B801110F880B990B0E94B91504
:100F20009B01AC016F89788D898D9A8D0E946D1619
:100F30006F8B788F898F9A8FE814F90419F481E008
:100F40008E8B01C01E8A9401A70164E070E0CE017F
:100F50000E9495058E89DF91CF911F910F91FF908F
:100F6000EF90DF90CF90BF90AF909F908F900895BB
:100F7000EF92FF921F93CF93DF931F921F92CDB7F3
:100F8000DEB77C01162FFC0160834183228380E958
:100F900083831482158284EF91E097838683118680
:100FA000108680E090E0A0E0B1E482879387A48778
:100FB000B58786E696E6A6E6BFE386879787A08B89
:100FC000B18B8AE097EDA3EABCE3828B938BA48B71
:100FD000B58B81E0868B178A108E118E128E138E40
:100FE000148E158E168E62E074E0C7014F962A8328
:100FF00049830E94F2106AE073E0C70185960E945F
:10100000F210F7011083498141832A81228361E034
:10101000812F0E944A0D61E0F70181810E944A0DF3
:1010200061E0F70182810E944A0D61E0F70182814F
:101030000F900F90DF91CF911F91FF90EF900C9444
:101040001A0D2F923F924F925F926F927F928F92E2
:101050009F92AF92BF92CF92DF92EF92FF920F9347
:101060001F93CF93DF93CDB7DEB7CE5AD1400FB6E3
:10107000F894DEBF0FBECDBFE091B004F091B10493
:1010800082E08083E091AC04F091AD041082E091A5
:10109000AE04F091AF048FEC80831092B804E0911D
:1010A000B404F091B50486E08083E091B204F0913D
:1010B000B304808180618083E091B204F091B30435
:1010C000808188608083E091B204F091B3048081D4
:1010D00080688083E091B204F091B30480818F7DB9
:1010E000808360ED77E080E090E00E94860D82E3EF
:1010F0008093450583E3809346058DE093E08093DC
:10110000470582E094E080934805BC0189E495E0BE
:101110000E94A60EE0914F05F09150053097C9F05E
:101120008AE092E09183808380919E0490919F0455
:101130008E179F0759F4A389B4899C91858980955E
:1011400089238C9310929F0410929E04CF010E94D9
:10115000A3188FE190E00E940E188C01F0904605D4
:1011600090914505D80113961C921E92129748EE55
:1011700053E060E070E0F801448355836683778331
:101180002AE032E031832083178A168A118E108E6E
:10119000138E128E158E148E668D6E7F6D7F668F08
:1011A0006695617081E068278F2DC255DE4F988368
:1011B000CE5AD1400E941A0D61E08F2D0E944A0D37
:1011C0002F2D30E0F901EE5EFC4FE491D8015096EE
:1011D000EC93F901E453FD4FE491F0E0EE0FFF1FB3
:1011E000E856FD4F25913491F801328B218B60E058
:1011F000C255DE4F9881CE5AD140892F0E944A0DA8
:10120000D8015E968C91C255DE4F9881CE5AD1405E
:1012100081FD09C061E0892F0E941A0DC255DE4F81
:101220009881CE5AD140F8019487292F30E0F901F6
:10123000EE5EFC4FE491D8011D96EC93F901E45366
:10124000FD4FE491F0E0EE0FFF1FEE54FD4F45918E
:101250005491F801578746871093500500934F0526
:10126000138E128E118E108E178A168A4DE951E058
:10127000558F448F86EF890F843048F04EEC490F2C
:10128000443028F042EC490F483008F06AC04DEB7A
:1012900050E0D80157965C934E9356974BE951E036
:1012A00059965C934E9358974CE251E05B965C9351
:1012B0004E935A97843060F04EEC490F443040F022
:1012C00042EC490F483008F483C2A0E0B0E082C28B
:1012D000A8E6B0E0E8E6F0E04081843020F052EC8F
:1012E000590F583010F051E001C054E0452B4C9399
:1012F000843058F04EEC490F443038F042EC490F3E
:10130000483030F040E050E005C04BE650E002C00D
:101310004DE650E0F801548B438B843018F426508E
:1013200031090BC0923379F0933379F0943379F02B
:101330009E53983070F42E53310981E001C0880F1C
:101340002A95EAF707C088E005C084E003C082E080
:1013500001C081E0D80155968C938DE991E0019709
:10136000F1F7F801828D938D892B49F1E0919E046C
:10137000F0919F04E017F10711F1309739F0A3893C
:10138000B4899C918589809589238C93D8015E9638
:101390008C915E978E7F5E968C935E9710929C04E4
:1013A00010929D0410939F0400939E045396ED9118
:1013B000FC915497908155968C91892B808327E0DE
:1013C00046E065E0CE018E5F9E4F0E94B8076FE059
:1013D00073E08E010F5F1F4FC8010E94F210B80129
:1013E000CE018E5F9E4F0E94DC03C8010E94440F15
:1013F00084EF282E33243394C85FDE4F398228824D
:10140000C850D14048E069E0CE018E5F9E4F0E94F7
:101410004804E1E0F0E0C65FDE4FF983E883CA509C
:10142000D140F0E9CB5FDE4FF883C550D140812C2D
:10143000912CA12C91E4B92EC45FDE4F8882998251
:10144000AA82BB82CC50D14029E3422E2EE8522EF4
:1014500023E6622E2DE3722ECC5EDE4F4882598247
:101460006A827B82C451D14036E6C32EDC2CEC2C40
:101470003FE3F32EC05FDE4FC882D982EA82FB824F
:10148000C051D1402CE04BE06AE0CE0189529F4F21
:101490000E94B80760E273E0C8010E94F210B80130
:1014A000CE0189529F4F0E94DC03C8010E94440F65
:1014B000C352DF4F39822882CD5DD04082E090E078
:1014C000C152DF4F99838883CF5DD04090E9C652E7
:1014D000DF4F9883CA5DD040CF51DF4F8882998219
:1014E000AA82BB82C15ED040C751DF4F4882598279
:1014F0006A827B82C95ED040CB51DF4FC882D982DD
:10150000EA82FB82C55ED04024E243E262E2CE0181
:1015100084559F4F0E94B8076EE273E0C8010E9495
:10152000F210B801CE0184559F4F0E94DC03C80120
:101530000E94440FCE54DF4F39822882C25BD040D4
:1015400045E266E2CE0184559F4F0E944804A1E027
:10155000B0E0CC54DF4FB983A883C45BD040B0E97E
:10156000C155DF4FB883CF5AD040CA54DF4F88826D
:101570009982AA82BB82C65BD040C254DF4F4882A8
:1015800059826A827B82CE5BD040C654DF4FC882CC
:10159000D982EA82FB82CA5BD04024E043E062E069
:1015A000CE018F579F4F0E94B8076FE373E0C801C9
:1015B0000E94F210B801CE018F579F4F0E94DC03AA
:1015C000C8010E94440FC957DF4F39822882C7588B
:1015D000D040E2E0F0E0C757DF4FF983E883C95815
:1015E000D040F0E9CC57DF4FF883C458D040C557FE
:1015F000DF4F88829982AA82BB82CB58D040CD56D9
:10160000DF4F488259826A827B82C359D040C157DA
:10161000DF4FC882D982EA82FB82CF58D040BE0118
:101620006F577F4FCE018D579E4F0E94DF03BE0143
:1016300064557F4FCE01885A9E4F0E94DF03BE0142
:1016400069527F4FCE01835D9E4F0E94DF03BE0132
:101650006E5F7E4FC8010E94DF039E012D573E4FF3
:10166000AE01485A5E4FBE01635D7E4FC8010E94C5
:10167000C70CC8010E94D003CE01835D9E4F0E941B
:10168000D003CE01885A9E4F0E94D003CE018D57C1
:101690009E4F0E94D003CE018E5F9E4F0E94430456
:1016A000CE0189529F4F0E944304CE0184559F4F23
:1016B0000E944304CE018F579F4F0E9443046DE464
:1016C00073E0CE01885A9E4F0E94F210CE01885AD4
:1016D0009E4F0E948C0C62E074E0CE01835D9E4FB1
:1016E0000E94F210C95FDE4F8881C750D1400E942E
:1016F000F10C019771F083E595E00E94BD0E8823FF
:1017000009F463C06EE873E0CE01835D9E4F0E94D2
:10171000500EC25DDE4F8881CE52D1408F93C35DA3
:10172000DE4F8881CD52D1408F9383EC93E09F931D
:101730008F931F9280E88F931F930F930E94421AFA
:10174000C8010E94A50CCE01885A9E4F0E948C0CA5
:10175000CE01835D9E4F0E94440FCE01885A9E4F5A
:101760000E94440FCE018F579F4F0E94D003CE019D
:1017700084559F4F0E94D003CE0189529F4F0E94F3
:10178000D003CE018E5F9E4F0E94D0030FB6F89417
:10179000DEBF0FBECDBFC255DE4F0FB6F894DEBF21
:1017A0000FBECDBFDF91CF911F910F91FF90EF90B2
:1017B000DF90CF90BF90AF909F908F907F906F9071
:1017C0005F904F903F902F9008956AEA73E09CCF0E
:1017D000A8E6B0E0483008F47DCDE0E0F0E07CCD54
:1017E00080916905882349F08091BF05882329F0FD
:1017F0008091940581118091EA05089590E0FC01A3
:101800003197E231F10508F04EC08827EE58FF4FBE
:101810008F4F0C94F217809180008F7703C08091D6
:1018200080008F7D80938000089580918000877F65
:10183000F9CF84B58F7702C084B58F7D84BD0895BC
:101840008091B0008F7703C08091B0008F7D80932E
:10185000B0000895809190008F7707C0809190002C
:101860008F7D03C080919000877F809390000895C2
:101870008091A0008F7707C08091A0008F7D03C06A
:101880008091A000877F8093A0000895809120011F
:101890008F7707C0809120018F7D03C08091200148
:1018A000877F8093200108953FB7F89480910406C4
:1018B00090910506A0910606B091070626B5A89B53
:1018C00005C02F3F19F00196A11DB11D3FBFBA2FD2
:1018D000A92F982F8827820F911DA11DB11DBC0132
:1018E000CD0142E0660F771F881F991F4A95D1F7F7
:1018F00008950895CF93DF93EC0188819981009733
:1019000011F00E94A318198218821D821C821B826A
:101910001A82DF91CF910895CF93DF93FC01448128
:1019200055816081718180EA94E00E940402EC019B
:1019300042E050E060E074E080EA94E00E9404023B
:101940008C0F9D1FDF91CF910895CF93DF93009768
:1019500079F0FC0101900020E9F73197AF01481BB5
:10196000590BBC0180EA94E00E940402EC0102C021
:10197000C0E0D0E042E050E060E074E080EA94E053
:101980000E9404028C0F9D1FDF91CF910895EF926A
:10199000FF920F931F93CF93DF937B018A01E9019D
:1019A000BC0183E595E00E943D05B70189EA95E019
:1019B0000E943D05B8018EE795E00E943D05BE01FD
:1019C00084ED95E00E943D0580E590E090935205FE
:1019D00080935105DF91CF911F910F91FF90EF9070
:1019E0000895CF93DF93282F30E0F901E85AFC4F98
:1019F0008491F901EE5EFC4FD491F901E453FD4F5F
:101A0000C491CC2391F081110E94FE0BEC2FF0E0E9
:101A1000EE0FFF1FEE54FD4FA591B491EC91ED2315
:101A200081E090E021F480E002C080E090E0DF916E
:101A3000CF9108951F93CF93DF93282F30E0F901C2
:101A4000E85AFC4F8491F901EE5EFC4FD491F90104
:101A5000E453FD4FC491CC23C9F0162F81110E948D
:101A6000FE0BEC2FF0E0EE0FFF1FE856FD4FA591A7
:101A7000B4918FB7F894111105C09C91ED2FE095AA
:101A8000E92302C0EC91ED2BEC938FBFDF91CF9156
:101A90001F910895CF93DF9390E0FC01EE5EFC4F21
:101AA0002491FC01E453FD4F8491882361F190E07F
:101AB000880F991FFC01E258FD4FC591D491FC019C
:101AC000E856FD4FA591B491611109C09FB7F894F4
:101AD0008881209582238883EC912E230BC062306D
:101AE00061F49FB7F8943881822F8095832388838F
:101AF000EC912E2B2C939FBF06C08FB7F894E881F2
:101B00002E2B28838FBFDF91CF9108958F929F92C4
:101B1000AF92BF92CF92DF92EF92FF926B017C0166
:101B20000E94540C4B015C01C114D104E104F10486
:101B3000F1F00E94540CDC01CB0188199909AA0923
:101B4000BB09883E9340A105B10570F321E0C21A9C
:101B5000D108E108F10888EE880E83E0981EA11CE8
:101B6000B11CC114D104E104F10419F7DDCFFF90D9
:101B7000EF90DF90CF90BF90AF909F908F9008959F
:101B80001F920F920FB60F9211242F933F938F93B2
:101B90009F93AF93BF938091000690910106A0910F
:101BA0000206B09103063091FF0523E0230F2D3785
:101BB00020F40196A11DB11D05C026E8230F029651
:101BC000A11DB11D2093FF0580930006909301068F
:101BD000A0930206B0930306809104069091050637
:101BE000A0910606B09107060196A11DB11D809334
:101BF000040690930506A0930606B0930706BF91CE
:101C0000AF919F918F913F912F910F900FBE0F90A9
:101C10001F901895FC0124813581232B31F421E09C
:101C200061157105A1F0FB0108C0FC018081918163
:101C30006115710531F421E0FC018081882339F0C0
:101C400005C00E94321A21E0892B09F020E0822F82
:101C500008950F931F93CF93DF93EC0188819981AF
:101C6000009729F02A813B812617370788F48B01DA
:101C70006F5F7F4F0E943B19009761F099838883C3
:101C80001B830A832C813D81232B11F4FC011082DC
:101C900081E001C080E0DF91CF911F910F91089505
:101CA000EF92FF920F931F93CF93DF93611571050E
:101CB00011F480E023C0FB0101900020E9F7319787
:101CC000E61BF70BDC0114960D911C9115973097CC
:101CD000A1F07B01EC010E0F1F1FB8010E94290E1D
:101CE000882339F3288139818C819D81B701820F46
:101CF000931F0E943B1A1D830C8381E0DF91CF91DB
:101D00001F910F91FF90EF900895EF92FF920F9324
:101D10001F93CF93DF93EC017B018A01BA010E94EC
:101D2000290E811104C0CE010E947A0C07C01D83C8
:101D30000C83B701888199810E943B1ACE01DF9103
:101D4000CF911F910F91FF90EF900895CF93DF9364
:101D5000EC016115710559F0FB0101900020E9F7D4
:101D60003197AF01461B570B0E94850E02C00E949F
:101D70007A0CCE01DF91CF910895EF92FF921F93DD
:101D8000CF93DF93EC0161E089810E941A0DE12C71
:101D9000F12C40E061E070E0CE010E944E06182F69
:101DA00081110FC08FEFE81AF80A41E062E070E09D
:101DB000CE010E944E06811119C0CE010E94A406D8
:101DC000E8CF1F8A188E198E1A8E81E08E8B6AE0FA
:101DD00073E0CE0185960E94A60E20E030E0A701B8
:101DE00064E070E0CE010E9495051E89812FDF918D
:101DF000CF911F91FF90EF900895EF92FF920F9374
:101E00001F93CF93DF93CDB7DEB7A1970FB6F894AA
:101E1000DEBF0FBECDBF7C01CB01BA01F70111823D
:101E20001082138212821582148242E0420F8E01C8
:101E30000F5F1F4F0E942813BC01C7010E94A60E0E
:101E4000A1960FB6F894DEBF0FBECDBFDF91CF9144
:101E50001F910F91FF90EF900895CF93DF93EC01C6
:101E6000FB018617970761F060817181611571052B
:101E700029F0448155810E94850E02C00E947A0C8F
:101E8000CE01DF91CF910895FC01808191810C9466
:101E9000A3180F931F93CF93DF93CDB7DEB7C85925
:101EA000D1090FB6F894DEBF0FBECDBF01E515E036
:101EB000F801418D528D638D748D22E0CE018D56D7
:101EC0009F4F0E94FD0E4091C4055091C505609141
:101ED000C6057091C70522E0CE0183579F4F0E942F
:101EE000FD0E409195055091960560919705709172
:101EF000980522E0CE0189579F4F0E94FD0E409128
:101F0000EF055091F0056091F1057091F20522E026
:101F1000CE018F579F4F0E94FD0ECE57DF4F888115
:101F2000C258D0408F93CF57DF4F8881C158D040DF
:101F30008F93C857DF4F8881C858D0408F93C957B7
:101F4000DF4F8881C758D0408F93C257DF4F8881B9
:101F5000CE58D0408F93C357DF4F8881CD58D040A3
:101F60008F93CC56DF4F8881C459D0408F93CD5684
:101F7000DF4F8881C359D0408F93E9EFF5E081812D
:101F80008F9380818F93E3EAF5E081818F93808145
:101F90008F93EEECF5E081818F9380818F93F80130
:101FA00080A58F9387A18F9383E094E09F938F9375
:101FB00080E194E09F938F931F9280E88F938E012E
:101FC0000F5F1F4F1F930F930E94421ACE018F572E
:101FD0009F4F0E94440FCE0189579F4F0E94440F8C
:101FE000CE0183579F4F0E94440FCE018D569F4FC5
:101FF0000E94440FC8010E94A50C82E094E00E9458
:10200000A50C0FB6F894DEBF0FBECDBFC856DF4F8C
:102010000FB6F894DEBF0FBECDBFDF91CF911F91F9
:102020000F910895CF93DF93EC016BE474E00E946D
:102030000A0E882309F4C7C00E94F00B882381F0A0
:1020400040E050E064EB72E489EA95E00E94F30618
:102050000E94490F68EE73E080E090E00E94860DD8
:102060000E94F00B882399F0609151057091520500
:1020700071956195710983E595E00E9456070E946C
:10208000490F68EE73E080E090E00E94860D0E94A8
:10209000F00B882381F040E050E064E373EC89EAC0
:1020A00095E00E94F3060E94490F68EE73E080E01D
:1020B00090E00E94860D0E94F00B882361F083E57A
:1020C00095E00E94BD0E0E94490F68EE73E080E02B
:1020D00090E00E94860D0E94F00B882381F040E082
:1020E00050E064EB72E489EA95E00E94F3060E94F6
:1020F000490F68EE73E080E090E00E94860D0E9438
:10210000F00B882381F040E050E064EB72E484ED52
:1021100095E00E94F3060E94490F68EE73E080E0AC
:1021200090E00E94860D0E94F00B882399F0609148
:102130005105709152057195619571098EE795E091
:102140000E9456070E94490F68EE73E080E090E01D
:102150000E94860D0E94F00B882381F040E050E041
:1021600064E373EC84ED95E00E94F3060E94490F4E
:1021700068EE73E080E090E00E94860D0E94F00B14
:10218000882361F08EE795E00E94BD0E0E94490F02
:1021900068EE73E080E090E00E94860D0E94F00BF4
:1021A0008823E1F040E050E064EB72E484ED95E0D8
:1021B0000E94F3060E94490F68EE73E080E090E011
:1021C0000E94860D0BC063E574E0CE010E940A0EEA
:1021D000882321F083E595E00E94BD0EDF91CF9129
:1021E0000C94F00BFC011182108213821282158272
:1021F00014826115710551F0FB0101900020E9F78F
:102200003197AF01461B570B0C94850E0895CF9361
:10221000DF93CDB7DEB7C058D1090FB6F894DEBF53
:102220000FBECDBF789484B5826084BD84B58160D3
:1022300084BD85B5826085BD85B5816085BD809191
:102240006E00816080936E00109281008091810009
:102250008260809381008091810081608093810001
:10226000809180008160809380008091B1008460C3
:102270008093B1008091B00081608093B000809124
:1022800091008260809391008091910081608093A1
:102290009100809190008160809390008091A100D6
:1022A00082608093A1008091A10081608093A10051
:1022B0008091A00081608093A000809121018260C4
:1022C000809321018091210181608093210180917F
:1022D000200181608093200180917A008460809346
:1022E0007A0080917A00826080937A0080917A00EF
:1022F000816080937A0080917A00806880937A0070
:102300001092C1000E94210882E0A82E84E0B82E1D
:10231000CE0101967C019AEEC92E93E0D92E20E8D9
:10232000522EA092480562E074E089E495E00E9494
:10233000A60E80914F0590915005DC01ED91FC9126
:102340000480F581E02D1995181619060CF081C04E
:102350006AE070E080E090E00E94860D80914F0579
:1023600090915005DC01ED91FC910680F781E02D04
:1023700019958093480589831A8200914D05109123
:102380004E050F5F1F4FB80189E495E00E94290EAA
:10239000882389F02091490530914A0580914D05A7
:1023A00090914E05B701820F931F0E943B1A109324
:1023B0004E0500934D058090490590904A05811483
:1023C000910409F4B6CF00914D0510914E05011509
:1023D000110509F4AECF14013101BFEF2B1A3B0AEE
:1023E000F3018081082E000C990B0E94AE15892BF9
:1023F00099F701501109080D191DD8018C91082E6B
:10240000000C990B0E94AE15892B89F4A8014F5F2F
:102410005F4F4619570950934E0540934D0586145A
:10242000970458F4B301C4010E94291A06C0061586
:10243000170560F301501109E0CFE0914905F091D3
:102440004A0580914D0590914E05E80FF91F1082C5
:1024500070CF62E074E089E495E00E940A0E811179
:102460001AC080914A058F93809149058F93DF921E
:10247000CF921F925F92FF92EF920E94421AC70181
:102480000E94A50C82E094E00E94A50C0FB6F8947F
:10249000DEBF0FBECDBF1A8219821C821B821E8234
:1024A0001D8269E475E0C7010E942D0F80913D05F2
:1024B00090913E050097C9F069817A816115710597
:1024C00091F040913F05509140052D813E8142178A
:1024D000530748F00E943B1A8D819E8190934205DC
:1024E0008093410518C00E94A31889819A81909316
:1024F0003E0580933D058B819C81909340058093A0
:102500003F058D819E8190934205809341051A82FB
:1025100019821C821B821E821D82C7010E94440FE9
:1025200062E074E08DE395E00E940A0E811111C013
:102530001A8219821C821B821E821D826DE375E045
:10254000C7010E942D0FC7010E941210C7010E94EF
:10255000440F64EF71E080E090E00E94860D0E94DD
:10256000F102DFCE8DE395E00E94440F89E495E00F
:102570000E94440F84ED95E00E94D00389EA95E023
:102580000E94D0038EE795E00E94D00383E595E09A
:102590000C94D003E0EAF4E01382128288EE93E018
:1025A000A0E0B0E084839583A683B7838AE192E0BC
:1025B0009183808385EC90E09587848784EC90E01C
:1025C0009787868780EC90E0918B808B81EC90E000
:1025D000938B828B82EC90E0958B848B86EC90E0E1
:1025E000978B868B118E128E138E148E109252053D
:1025F0001092510520E040E060E083E595E00E9404
:10260000B80720E040E060E08EE795E00E94B80760
:1026100020E040E060E089EA95E00E94B80720E011
:1026200040E060E084ED95E00E94B80762E074E06D
:1026300089E495E00E94F210E3E4F5E01586148643
:102640001182108262E074E08DE395E00C94F21048
:10265000EF920F931F93CF93DF93E80147FD02C0E2
:1026600034E001C034E1E42F440FFF0BF7FF03C057
:10267000F195E195F109E32E022F2E2FAE010E9474
:102680004813CE01DF91CF911F910F91EF900895E4
:102690004F925F926F927F929F92AF92BF92CF9232
:1026A000DF92EF92FF920F931F93CF93DF93CDB7FB
:1026B000DEB729970FB6F894DEBF0FBECDBF6A0113
:1026C000122FB02E2BE3201720F0FF24F394F00EEE
:1026D00002C0BCE3FB2E0F2D27E0AE014F5F5F4F22
:1026E0000E94D614AC018981982F9970913031F0F5
:1026F000E1FC06C0E0FE06C090E205C09DE203C01A
:102700009BE201C090E0EE2DE07183FF3CC091118F
:1027100002C083E001C084E0811718F4212F281B38
:1027200001C020E0E1110BC0F601822F30E28823C6
:1027300019F031938150FBCFC20ED11C20E09923B8
:1027400029F0D6019C93F60131966F01C6010396DC
:10275000E2FE0AC03EE4D6013C9341E411964C935C
:10276000119712963C9306C03EE6F601308341E68F
:1027700041833283FC01322F40E2332309F442C00B
:1027800041933150FACF82FF44C0911102C083E0DF
:1027900001C084E0811718F4212F281B01C020E01C
:1027A000E1110BC0F601822F30E2882319F031933A
:1027B0008150FBCFC20ED11C20E0992329F0D60115
:1027C0009C93F60131966F01C6010396E2FE0BC0A1
:1027D00039E4D6013C933EE411963C93119736E4DC
:1027E00012963C9307C039E6F60130833EE631830A
:1027F00036E63283FC01322F40E2332319F0419355
:102800003150FBCFFC01E20FF11D10828EEF9FEFE4
:10281000B7C0F1E0911101C0F0E06F2F70E0141625
:10282000150624F49A012F5F3F4F02C021E030E0EB
:10283000260F371FBB2029F06B2D70E06F5F7F4F95
:1028400002C060E070E0260F371F612F70E026178E
:1028500037071CF4121B212F01C020E03E2D3871D8
:1028600059F4D601322F60E2332319F06D933150C1
:10287000FBCFC20ED11C20E0FF2331F0D6019C9388
:10288000B6016F5F7F4F6B01E1110BC0F601922F14
:1028900030E3992319F031939150FBCFC20ED11C34
:1028A00020E09F2D940F3A81782F7071A72E84FF1E
:1028B00003C0313309F49150191624F4993018F0FB
:1028C00098E001C091E0E42F852F57FF02C0E0E0BF
:1028D00080E06E2F782FE0E0F0E0AEE29A2E3A0131
:1028E000691A71082A01461A570A0B2D10E0119532
:1028F000019511096F3F8FEF780729F4D6019C925B
:10290000C60101966C014617570784F066167706D4
:102910006CF47F01E40CF51CA1E0B0E0AC0FBD1F2E
:10292000EA0EFB1ED7011196BC9002C090E3B92EAF
:10293000615071093196C60101967C0160177107DB
:1029400024F0D601BC926C01D5CF6417750741F411
:10295000363320F4353321F4A11002C081E3B82EC0
:10296000F601B082F701822F90E2882319F091934B
:102970008150FBCFF701E20FF11D108280E090E063
:1029800029960FB6F894DEBF0FBECDBFDF91CF9171
:102990001F910F91FF90EF90DF90CF90BF90AF907D
:1029A0009F907F906F905F904F900895283008F02F
:1029B00027E03327DA01990F311D87FD91600096DA
:1029C0006105710539F432602E5F3D9330E32A953D
:1029D000E1F708959F3F30F080387105610509F0F7
:1029E0003C5F3C5F3D93913008F08068911DDF9320
:1029F000CF931F930F93FF92EF92192F987F969585
:102A0000E92F96959695E90FFF27E252FE4F9927F9
:102A10003327EE24FF24A701E701059008940794CB
:102A200028F4360FE71EF81E491F511D660F771F49
:102A3000881F991F0694A1F70590079428F4E70EC4
:102A4000F81E491F561FC11D770F881F991F661F4B
:102A50000694A1F70590079428F4F80E491F561F15
:102A6000C71FD11D880F991F661F771F0694A1F7F6
:102A70000590079420F4490F561FC71FD81F990FC0
:102A8000661F771F881F0694A9F784911095177009
:102A900041F0D695C79557954795F794E7941A95C1
:102AA000C1F7E4E8F1E068941590159135916591CE
:102AB000959105907FE27395E118F10A430B560B4F
:102AC000C90BD009C0F7E10CF11E431F561FC91FE7
:102AD000D01D7EF4703311F48A95E6CFE89401504E
:102AE00030F0080F0AF40027021708F4202F23956E
:102AF000022F7A3328F079E37D932A95E9F710C005
:102B00007D932A9589F6069497956795379517953D
:102B10001794E118F10A430B560BC90BD00998F032
:102B200023957E9173957A3308F070E37C9320139C
:102B3000B8F77E9170617D9330F0839571E37D935A
:102B400070E32A95E1F71124EF90FF900F911F9108
:102B5000CF91DF91992787FD9095089591110C945D
:102B60001816803219F089508550C8F70895E894F6
:102B700009C097FB3EF490958095709561957F4FC5
:102B80008F4F9F4F9923A9F0F92F96E9BB27939573
:102B9000F695879577956795B795F111F8CFFAF483
:102BA000BB0F11F460FF1BC06F5F7F4F8F4F9F4FB4
:102BB00016C0882311F096E911C0772321F09EE812
:102BC000872F762F05C0662371F096E8862F70E078
:102BD00060E02AF09A95660F771F881FDAF7880F52
:102BE0009695879597F90895990F0008550FAA0BA8
:102BF000E0E8FEEF16161706E807F907C0F0121610
:102C00001306E407F50798F0621B730B840B950B12
:102C100039F40A2661F0232B242B252B21F4089567
:102C20000A2609F4A140A6958FEF811D811D089504
:102C300099278827089597F99F6780E870E060E0FA
:102C400008959FEF80EC089500240A941616170645
:102C500018060906089500240A941216130614068D
:102C600005060895092E0394000C11F4882352F0F0
:102C7000BB0F40F4BF2B11F460FF04C06F5F7F4FA8
:102C80008F4F9F4F089557FD9058440F551F59F08F
:102C90005F3F71F04795880F97FB991F61F09F3F49
:102CA00079F087950895121613061406551FF2CF72
:102CB0004695F1DF08C0161617061806991FF1CFC2
:102CC00086957105610508940895E894BB276627E9
:102CD0007727CB0197F908955058BB27AA270E9460
:102CE00084160C9432160E94241638F00E942B167B
:102CF00020F039F49F3F19F426F40C9421160EF4B9
:102D0000E095E7FB0C941B16E92F0E94431658F33D
:102D1000BA17620773078407950720F079F4A6F5C0
:102D20000C9465160EF4E0950B2EBA2FA02D0B0116
:102D3000B90190010C01CA01A0011124FF27591B00
:102D400099F0593F50F4503E68F11A16F040A22F06
:102D5000232F342F4427585FF3CF46953795279577
:102D6000A795F0405395C9F77EF41F16BA0B620B76
:102D7000730B840BBAF09150A1F0FF0FBB1F661FBD
:102D8000771F881FC2F70EC0BA0F621F731F841F00
:102D900048F4879577956795B795F7959E3F08F026
:102DA000B0CF9395880F08F09927EE0F97958795E8
:102DB00008950E94C11790F09F3748F4911116F4BE
:102DC0000C94661660E070E080E89FE3089526F0BA
:102DD0001B16611D711D811D0C9498170C94B3175F
:102DE0000E9404170C9432160E942B1658F00E9471
:102DF000241640F029F45F3F29F00C941B16511162
:102E00000C9466160C9421160E94431668F39923BD
:102E1000B1F3552391F3951B550BBB27AA276217D6
:102E20007307840738F09F5F5F4F220F331F441FE3
:102E3000AA1FA9F335D00E2E3AF0E0E832D0915017
:102E40005040E695001CCAF72BD0FE2F29D0660F04
:102E5000771F881FBB1F261737074807AB07B0E847
:102E600009F0BB0B802DBF01FF2793585F4F3AF04D
:102E70009E3F510578F00C941B160C9466165F3F2C
:102E8000E4F3983ED4F3869577956795B795F795D3
:102E90009F5FC9F7880F911D9695879597F90895BB
:102EA000E1E0660F771F881FBB1F62177307840757
:102EB000BA0720F0621B730B840BBA0BEE1F88F766
:102EC000E09508950E9469176894B1110C946616F4
:102ED00008950E944B1688F09F5798F0B92F9927B4
:102EE000B751B0F0E1F0660F771F881F991F1AF0F5
:102EF000BA95C9F714C0B13091F00E946516B1E0DF
:102F000008950C946516672F782F8827B85F39F0DD
:102F1000B93FCCF3869577956795B395D9F73EF48D
:102F200090958095709561957F4F8F4F9F4F089535
:102F3000882371F4772321F09850872B762F07C0D0
:102F4000662311F499270DC09051862B70E060E044
:102F50002AF09A95660F771F881FDAF7880F9695E3
:102F6000879597F908959F3F31F0915020F4879508
:102F700077956795B795880F911D9695879597F9E1
:102F800008950E944B16A0F0BEE7B91788F4BB273E
:102F90009F3860F41616B11D672F782F8827985F29
:102FA000F7CF869577956795B11D93959639C8F3B8
:102FB00008950E94F41508F48FEF089597FB072EEB
:102FC00016F4009407D077FD09D00E94FA1707FC89
:102FD00005D03EF4909581959F4F08957095619529
:102FE0007F4F0895EE0FFF1F881F8BBF0790F6914C
:102FF000E02D1994AA1BBB1B51E107C0AA1FBB1FE0
:10300000A617B70710F0A61BB70B881F991F5A9574
:10301000A9F780959095BC01CD010895CF93DF93DA
:103020008230910510F482E090E0E0910A06F09180
:103030000B0620E030E0C0E0D0E0309711F1408195
:10304000518148175907C0F04817590761F4828128
:103050009381209719F09B838A832BC090930B0652
:1030600080930A0626C02115310519F0421753072F
:1030700018F49A01BE01DF01EF010280F381E02D17
:10308000DCCF2115310509F1281B390B243031051E
:1030900090F412968D919C9113976115710521F012
:1030A000FB019383828304C090930B0680930A06EE
:1030B000FD01329644C0FD01E20FF31F819391930D
:1030C000225031092D933C933AC02091080630914B
:1030D0000906232B41F42091020230910302309320
:1030E0000906209308062091000230910102211563
:1030F000310541F42DB73EB74091040250910502CD
:10310000241B350BE0910806F0910906E217F3073E
:10311000A0F42E1B3F0B2817390778F0AC014E5F47
:103120005F4F2417350748F04E0F5F1F5093090675
:10313000409308068193919302C0E0E0F0E0CF0154
:10314000DF91CF9108950F931F93CF93DF93009753
:1031500009F48CC0FC0132971382128200910A0696
:1031600010910B060115110581F420813181820F28
:10317000931F20910806309109062817390779F521
:10318000F0930906E093080671C0D80140E050E0D2
:10319000AE17BF0750F412962D913C911397AD01D5
:1031A0002115310509F1D901F3CF9D01DA013383EE
:1031B000228360817181860F971F8217930769F4BC
:1031C000EC0128813981260F371F2E5F3F4F318355
:1031D00020838A819B8193838283452B29F4F093FA
:1031E0000B06E0930A0642C01396FC93EE931297E7
:1031F000ED01499159919E01240F351FE217F30704
:1032000071F480819181840F951F029611969C9391
:103210008E938281938113969C938E931297E0E014
:10322000F0E0D80112968D919C911397009719F0B8
:10323000F8018C01F6CF8D919C9198012E5F3F4F44
:10324000820F931F2091080630910906281739072D
:1032500069F4309729F410920B0610920A0602C006
:10326000138212821093090600930806DF91CF9112
:103270001F910F9108956F927F928F929F92AF92BC
:10328000BF92CF92DF92EF92FF920F931F93CF9353
:10329000DF93EC01009789F4CB01DF91CF911F916F
:1032A0000F91FF90EF90DF90CF90BF90AF909F90E5
:1032B0008F907F906F900C940E18FC01E60FF71F13
:1032C0009C0122503109E217F30708F4ACC0D90180
:1032D0000D911C91119706171707B0F005301105D5
:1032E00008F49FC0C80104978617970708F499C08F
:1032F00002501109061B170B019311936D937C93D8
:10330000CF010E94A3188DC05B01A01AB10A4C0125
:10331000800E911EA0910A06B0910B0640E050E08D
:10332000E12CF12C109709F44AC0A815B905D1F584
:103330006D907C901197630182E0C80ED11CCA1475
:10334000DB0480F1A3014A195B096A0182E0C80E1F
:10335000D11C1296BC9012971396AC91B5E0CB1687
:10336000D10440F0B282A38351834083D9016D938D
:103370007C930AC00E5F1F4FC301800F911FF9019C
:1033800091838083EB2DFA2FE114F10431F0D70102
:103390001396FC93EE93129744C0F0930B06E093C0
:1033A0000A063FC08D919C9111974817590708F460
:1033B000AC017D0112960D90BC91A02DB3CF8091F0
:1033C00008069091090688159905E1F446175707F4
:1033D000C8F48091000290910102009741F48DB7EA
:1033E0009EB74091040250910502841B950BE8178B
:1033F000F907C8F4F0930906E0930806F901718310
:1034000060830FC0CB010E940E187C01009759F019
:10341000A801BE010E94291ACE010E94A318C7016B
:1034200004C0CE0102C080E090E0DF91CF911F91F7
:103430000F91FF90EF90DF90CF90BF90AF909F9053
:103440008F907F906F90089581E090E0F8940C94B5
:10345000261DFB01DC0102C001900D92415050403D
:10346000D8F70895FB01DC018D91019080190110BE
:10347000D9F3990B0895FB01DC0101900D92002016
:10348000E1F708950F931F93CF93DF93CDB7DEB786
:103490002E970FB6F894DEBF0FBECDBF0E891F89E1
:1034A000888D998D26E02C831A83098397FF02C0AB
:1034B00080E090E801979E838D83AE01445E5F4F6C
:1034C0006A8D7B8DCE0101960E947F1A4D815E81AF
:1034D00057FD0AC02F813885421753070CF49A0113
:1034E000F801E20FF31F10822E960FB6F894DEBF9C
:1034F0000FBECDBFDF91CF911F910F9108952F92F5
:103500003F924F925F926F927F928F929F92AF9273
:10351000BF92CF92DF92EF92FF920F931F93CF93C0
:10352000DF93CDB7DEB72C970FB6F894DEBF0FBE92
:10353000CDBF7C016B018A01FC0117821682838159
:1035400081FFBDC1CE0101964C01F7019381F601C7
:1035500093FD859193FF81916F01882309F4ABC19D
:10356000853239F493FD859193FF81916F01853206
:1035700029F4B70190E00E94901CE7CF512C312C28
:1035800020E02032A0F48B3269F030F4803259F020
:10359000833269F420612CC08D3239F0803339F4E4
:1035A000216026C02260246023C0286021C027FD3E
:1035B00027C030ED380F3A3078F426FF06C0FAE025
:1035C0005F9E300D1124532E13C08AE0389E300DBB
:1035D0001124332E20620CC08E3221F426FD6BC1E3
:1035E000206406C08C3611F4206802C0883641F48D
:1035F000F60193FD859193FF81916F018111C1CFF8
:10360000982F9F7D9554933028F40C5F1F4FFFE354
:10361000F9830DC0833631F0833771F0833509F0BB
:103620005BC022C0F801808189830E5F1F4F442454
:103630004394512C540115C03801F2E06F0E711CF7
:10364000F801A080B18026FF03C0652D70E002C0A4
:103650006FEF7FEFC5012C870E94851C2C01830131
:103660002C852F77222E17C03801F2E06F0E711CC7
:10367000F801A080B18026FF03C0652D70E002C074
:103680006FEF7FEFC5012C870E947A1C2C012C85DF
:103690002068222E830123FC1BC0832D90E0481656
:1036A0005906B0F4B70180E290E00E94901C3A9471
:1036B000F4CFF50127FC859127FE81915F01B701C9
:1036C00090E00E94901C31103A94F1E04F1A51089A
:1036D0004114510471F7E5C0843611F0893639F58B
:1036E000F80127FF07C060817181828193810C5F9F
:1036F0001F4F08C060817181072E000C880B990B49
:103700000E5F1F4F2F76722E97FF09C09095809500
:10371000709561957F4F8F4F9F4F2068722E2AE0E2
:1037200030E0A4010E94C81CA82EA81844C0853708
:1037300029F42F7EB22E2AE030E025C0F22FF97F47
:10374000BF2E8F36C1F018F4883579F0B4C08037B9
:1037500019F0883721F0AFC02F2F2061B22EB4FEB0
:103760000DC08B2D8460B82E09C024FF0AC09F2F86
:103770009660B92E06C028E030E005C020E130E0B8
:1037800002C020E132E0F801B7FE07C0608171811C
:10379000828193810C5F1F4F06C06081718180E040
:1037A00090E00E5F1F4FA4010E94C81CA82EA8180D
:1037B000FB2DFF777F2E76FE0BC0372D3E7FA514A5
:1037C00050F474FE0AC072FC08C0372D3E7E05C05E
:1037D000BA2C372D03C0BA2C01C0B52C34FF0DC054
:1037E000FE01EA0DF11D8081803311F4397E09C09C
:1037F00032FF06C0B394B39404C0832F867809F0D7
:10380000B39433FD13C030FF06C05A2CB31418F420
:10381000530C5B18B32CB31468F4B70180E290E04A
:103820003C870E94901CB3943C85F5CFB31410F4F0
:103830003B1801C0312C34FF12C0B70180E390E087
:103840003C870E94901C3C8532FF17C031FD03C0AD
:1038500088E790E002C088E590E0B7010CC0832FB4
:10386000867859F031FF02C08BE201C080E237FD5B
:103870008DE2B70190E00E94901CA51438F4B701C6
:1038800080E390E00E94901C5A94F7CFAA94F40130
:10389000EA0DF11D8081B70190E00E94901CA110FB
:1038A000F5CF332009F451CEB70180E290E00E94B9
:1038B000901C3A94F6CFF7018681978102C08FEF72
:1038C0009FEF2C960FB6F894DEBF0FBECDBFDF91F1
:1038D000CF911F910F91FF90EF90DF90CF90BF900D
:1038E000AF909F908F907F906F905F904F903F90A0
:1038F0002F900895FC010590615070400110D8F799
:10390000809590958E0F9F1F0895FC016150704027
:1039100001900110D8F7809590958E0F9F1F089504
:103920000F931F93CF93DF93FB01238121FD03C0EE
:103930008FEF9FEF28C022FF16C046815781248158
:1039400035814217530744F4A081B1819D012F5F57
:103950003F4F318320838C93268137812F5F3F4FE8
:103960003783268310C0EB01092F182F0084F185BF
:10397000E02D1995892BE1F68E819F8101969F8319
:103980008E83812F902FDF91CF911F910F910895FA
:10399000FA01AA27283051F1203181F1E8946F9380
:1039A0006E7F6E5F7F4F8F4F9F4FAF4FB1E03ED026
:1039B000B4E03CD0670F781F891F9A1FA11D680FC4
:1039C000791F8A1F911DA11D6A0F711D811D911DF7
:1039D000A11D20D009F468943F912AE0269F11246C
:1039E0003019305D3193DEF6CF010895462F4770D0
:1039F000405D4193B3E00FD0C9F7F6CF462F4F702B
:103A0000405D4A3318F0495D31FD4052419302D088
:103A1000A9F7EACFB4E0A69597958795779567952E
:103A2000BA95C9F700976105710508959B01AC012E
:103A30000A2E06945795479537952795BA95C9F755
:103A4000620F731F841F951FA01D089511E0C0ED24
:103A5000D1E000E006C0802FFE010E94F2172196FF
:103A6000011DC13DD10780E00807A9F7F894FFCFF9
:103A700000000C06800000000000430304029703CE
:103A8000AF032A034203000000008802040251022F
:103A90002F024302CF02000000004104040241044F
:103AA0004104410441040000000041040402257364
:103AB00028257329202D20747269676765726564F3
:103AC00020686F6D652073776974636800257328BB
:103AD000257329202D206E6F726D616C20637963D0
:103AE0006C6520686974206C696D6974733A204C48
:103AF0004D54202D2025692C204C4D5448202D203C
:103B0000256900257328257329202D206379636C8E
:103B100065642023207374657073206261636B2079
:103B2000686F6D653A202569002573282573292063
:103B30002D206379636C65642073746570733A201B
:103B40002569202F202569004552524F525F484F6A
:103B50004D454359434C455F4849545F4C494D4995
:103B60005432004552524F525F4359434C455F48CF
:103B700049545F4C494D495453004F4B002C00535E
:103B80005445505045525F585F5452414E534C007B
:103B9000535445505045525F585F4C454400535470
:103BA00045505045525F595F5452414E534C00535B
:103BB0005445505045525F595F4C454400232323E0
:103BC00023232323232323232323232323232323C5
:103BD00023232323232323232323232323232323B5
:103BE00023232323232323232323232323232323A5
:103BF0002323232323232323232323232300444F6B
:103C00004E45202D2057414954494E4720464F529A
:103C100020434F4D4D414E4453004641494C45448D
:103C2000202D205820434F554C444E54205245538C
:103C3000455400444B414B205445585343414E207A
:103C40002D20696E697469616C697A6174696F6E3F
:103C500020746573743A20257300425420434F4DFD
:103C60004D414E44204953535545443A2025730055
:103C70000D0A00444B414B5F5445585343414E009D
:103C800025732858202D2025732F25732C2059208B
:103C90002D2025732F257329202D207472616E73BA
:103CA000666F726D3A2058202D2025732F25732CB6
:103CB0002059202D2025732F25730073785F73639F
:0C3CC000616E0073785F726573657400BC
:00000001FF
